{
  "_format": "hh-sol-artifact-1",
  "contractName": "LockedToken",
  "sourceName": "contracts/BunToken-flat-20240709.sol",
  "abi": [
    {
      "inputs": [
        {
          "internalType": "address",
          "name": "pToken",
          "type": "address"
        },
        {
          "internalType": "address",
          "name": "_donor",
          "type": "address"
        },
        {
          "internalType": "address",
          "name": "_beneficiary",
          "type": "address"
        },
        {
          "internalType": "uint256",
          "name": "_releaseTime",
          "type": "uint256"
        },
        {
          "internalType": "bool",
          "name": "_revocable",
          "type": "bool"
        },
        {
          "internalType": "address",
          "name": "_system",
          "type": "address"
        }
      ],
      "stateMutability": "nonpayable",
      "type": "constructor"
    },
    {
      "inputs": [
        {
          "internalType": "address",
          "name": "target",
          "type": "address"
        }
      ],
      "name": "AddressEmptyCode",
      "type": "error"
    },
    {
      "inputs": [
        {
          "internalType": "address",
          "name": "account",
          "type": "address"
        }
      ],
      "name": "AddressInsufficientBalance",
      "type": "error"
    },
    {
      "inputs": [],
      "name": "FailedInnerCall",
      "type": "error"
    },
    {
      "inputs": [
        {
          "internalType": "address",
          "name": "token",
          "type": "address"
        }
      ],
      "name": "SafeERC20FailedOperation",
      "type": "error"
    },
    {
      "anonymous": false,
      "inputs": [
        {
          "indexed": false,
          "internalType": "address",
          "name": "beneficiary",
          "type": "address"
        },
        {
          "indexed": false,
          "internalType": "uint256",
          "name": "amount",
          "type": "uint256"
        },
        {
          "indexed": false,
          "internalType": "uint256",
          "name": "releaseTime",
          "type": "uint256"
        }
      ],
      "name": "Claim",
      "type": "event"
    },
    {
      "anonymous": false,
      "inputs": [
        {
          "indexed": false,
          "internalType": "address",
          "name": "donor",
          "type": "address"
        },
        {
          "indexed": false,
          "internalType": "uint256",
          "name": "amount",
          "type": "uint256"
        }
      ],
      "name": "Revoke",
      "type": "event"
    },
    {
      "inputs": [],
      "name": "balanceOf",
      "outputs": [
        {
          "internalType": "uint256",
          "name": "",
          "type": "uint256"
        }
      ],
      "stateMutability": "view",
      "type": "function"
    },
    {
      "inputs": [],
      "name": "beneficiary",
      "outputs": [
        {
          "internalType": "address",
          "name": "",
          "type": "address"
        }
      ],
      "stateMutability": "view",
      "type": "function"
    },
    {
      "inputs": [],
      "name": "claim",
      "outputs": [],
      "stateMutability": "nonpayable",
      "type": "function"
    },
    {
      "inputs": [],
      "name": "donor",
      "outputs": [
        {
          "internalType": "address",
          "name": "",
          "type": "address"
        }
      ],
      "stateMutability": "view",
      "type": "function"
    },
    {
      "inputs": [],
      "name": "getInfo",
      "outputs": [
        {
          "internalType": "address",
          "name": "",
          "type": "address"
        },
        {
          "internalType": "address",
          "name": "",
          "type": "address"
        },
        {
          "internalType": "uint256",
          "name": "",
          "type": "uint256"
        },
        {
          "internalType": "bool",
          "name": "",
          "type": "bool"
        },
        {
          "internalType": "uint256",
          "name": "",
          "type": "uint256"
        },
        {
          "internalType": "address",
          "name": "",
          "type": "address"
        }
      ],
      "stateMutability": "view",
      "type": "function"
    },
    {
      "inputs": [],
      "name": "releaseTime",
      "outputs": [
        {
          "internalType": "uint256",
          "name": "",
          "type": "uint256"
        }
      ],
      "stateMutability": "view",
      "type": "function"
    },
    {
      "inputs": [],
      "name": "revocable",
      "outputs": [
        {
          "internalType": "bool",
          "name": "",
          "type": "bool"
        }
      ],
      "stateMutability": "view",
      "type": "function"
    },
    {
      "inputs": [],
      "name": "revoke",
      "outputs": [],
      "stateMutability": "nonpayable",
      "type": "function"
    },
    {
      "inputs": [],
      "name": "system",
      "outputs": [
        {
          "internalType": "address",
          "name": "",
          "type": "address"
        }
      ],
      "stateMutability": "view",
      "type": "function"
    },
    {
      "inputs": [],
      "name": "token",
      "outputs": [
        {
          "internalType": "contract IERC20",
          "name": "",
          "type": "address"
        }
      ],
      "stateMutability": "view",
      "type": "function"
    }
  ],
  "bytecode": "0x61012060405234801561001157600080fd5b506040516118293803806118298339818101604052810190610033919061038f565b600073ffffffffffffffffffffffffffffffffffffffff168573ffffffffffffffffffffffffffffffffffffffff16036100a2576040517f08c379a000000000000000000000000000000000000000000000000000000000815260040161009990610479565b60405180910390fd5b600073ffffffffffffffffffffffffffffffffffffffff168473ffffffffffffffffffffffffffffffffffffffff1603610111576040517f08c379a0000000000000000000000000000000000000000000000000000000008152600401610108906104e5565b60405180910390fd5b600073ffffffffffffffffffffffffffffffffffffffff168173ffffffffffffffffffffffffffffffffffffffff1603610180576040517f08c379a000000000000000000000000000000000000000000000000000000000815260040161017790610551565b60405180910390fd5b4283116101c2576040517f08c379a00000000000000000000000000000000000000000000000000000000081526004016101b9906105bd565b60405180910390fd5b856000806101000a81548173ffffffffffffffffffffffffffffffffffffffff021916908373ffffffffffffffffffffffffffffffffffffffff1602179055508473ffffffffffffffffffffffffffffffffffffffff1660808173ffffffffffffffffffffffffffffffffffffffff16815250508373ffffffffffffffffffffffffffffffffffffffff1660a08173ffffffffffffffffffffffffffffffffffffffff16815250508260c0818152505081151560e0811515815250508073ffffffffffffffffffffffffffffffffffffffff166101008173ffffffffffffffffffffffffffffffffffffffff16815250505050505050506105dd565b600080fd5b600073ffffffffffffffffffffffffffffffffffffffff82169050919050565b60006102ee826102c3565b9050919050565b6102fe816102e3565b811461030957600080fd5b50565b60008151905061031b816102f5565b92915050565b6000819050919050565b61033481610321565b811461033f57600080fd5b50565b6000815190506103518161032b565b92915050565b60008115159050919050565b61036c81610357565b811461037757600080fd5b50565b60008151905061038981610363565b92915050565b60008060008060008060c087890312156103ac576103ab6102be565b5b60006103ba89828a0161030c565b96505060206103cb89828a0161030c565b95505060406103dc89828a0161030c565b94505060606103ed89828a01610342565b93505060806103fe89828a0161037a565b92505060a061040f89828a0161030c565b9150509295509295509295565b600082825260208201905092915050565b7f4c3a20646f6e6f72000000000000000000000000000000000000000000000000600082015250565b600061046360088361041c565b915061046e8261042d565b602082019050919050565b6000602082019050818103600083015261049281610456565b9050919050565b7f4c3a2062656e6566696369617279000000000000000000000000000000000000600082015250565b60006104cf600e8361041c565b91506104da82610499565b602082019050919050565b600060208201905081810360008301526104fe816104c2565b9050919050565b7f4c3a2073797374656d0000000000000000000000000000000000000000000000600082015250565b600061053b60098361041c565b915061054682610505565b602082019050919050565b6000602082019050818103600083015261056a8161052e565b9050919050565b7f4c3a20696e76616c69642072656c656173652074696d65000000000000000000600082015250565b60006105a760178361041c565b91506105b282610571565b602082019050919050565b600060208201905081810360008301526105d68161059a565b9050919050565b60805160a05160c05160e051610100516111a66106836000396000818161054b01528181610646015261071f01526000818161049001528181610622015261066a0152600081816101f6015281816103e90152818161046f01526109570152600081816101d20152818161033e015281816103c7015261044e0152600081816101ae0152818161042d015281816106ca01528181610893015261091c01526111a66000f3fe608060405234801561001057600080fd5b506004361061009e5760003560e01c8063872a781011610066578063872a78101461012a57806395bf75fd14610148578063b6549f7514610166578063b91d400114610170578063fc0c546a1461018e5761009e565b806325223bd4146100a357806338af3eed146100c15780634e71d92d146100df5780635a9b0b89146100e9578063722713f71461010c575b600080fd5b6100ab6101ac565b6040516100b89190610cb0565b60405180910390f35b6100c96101d0565b6040516100d69190610cb0565b60405180910390f35b6100e76101f4565b005b6100f1610422565b60405161010396959493929190610cff565b60405180910390f35b61011461057e565b6040516101219190610d60565b60405180910390f35b610132610620565b60405161013f9190610d7b565b60405180910390f35b610150610644565b60405161015d9190610cb0565b60405180910390f35b61016e610668565b005b610178610955565b6040516101859190610d60565b60405180910390f35b610196610979565b6040516101a39190610df5565b60405180910390f35b7f000000000000000000000000000000000000000000000000000000000000000081565b7f000000000000000000000000000000000000000000000000000000000000000081565b7f0000000000000000000000000000000000000000000000000000000000000000421015610257576040517f08c379a000000000000000000000000000000000000000000000000000000000815260040161024e90610e6d565b60405180910390fd5b60008060009054906101000a900473ffffffffffffffffffffffffffffffffffffffff1673ffffffffffffffffffffffffffffffffffffffff166370a08231306040518263ffffffff1660e01b81526004016102b39190610cb0565b602060405180830381865afa1580156102d0573d6000803e3d6000fd5b505050506040513d601f19601f820116820180604052508101906102f49190610ebe565b905060008111610339576040517f08c379a000000000000000000000000000000000000000000000000000000000815260040161033090610f37565b60405180910390fd5b6103a47f00000000000000000000000000000000000000000000000000000000000000008260008054906101000a900473ffffffffffffffffffffffffffffffffffffffff1673ffffffffffffffffffffffffffffffffffffffff166109a29092919063ffffffff16565b7f34fcbac0073d7c3d388e51312faf357774904998eeb8fca628b9e6f65ee1cbf77f0000000000000000000000000000000000000000000000000000000000000000827f000000000000000000000000000000000000000000000000000000000000000060405161041793929190610f57565b60405180910390a150565b6000806000806000807f00000000000000000000000000000000000000000000000000000000000000007f00000000000000000000000000000000000000000000000000000000000000007f00000000000000000000000000000000000000000000000000000000000000007f000000000000000000000000000000000000000000000000000000000000000060008054906101000a900473ffffffffffffffffffffffffffffffffffffffff1673ffffffffffffffffffffffffffffffffffffffff166370a08231306040518263ffffffff1660e01b81526004016105089190610cb0565b602060405180830381865afa158015610525573d6000803e3d6000fd5b505050506040513d601f19601f820116820180604052508101906105499190610ebe565b7f0000000000000000000000000000000000000000000000000000000000000000955095509550955095509550909192939495565b60008060009054906101000a900473ffffffffffffffffffffffffffffffffffffffff1673ffffffffffffffffffffffffffffffffffffffff166370a08231306040518263ffffffff1660e01b81526004016105da9190610cb0565b602060405180830381865afa1580156105f7573d6000803e3d6000fd5b505050506040513d601f19601f8201168201806040525081019061061b9190610ebe565b905090565b7f000000000000000000000000000000000000000000000000000000000000000081565b7f000000000000000000000000000000000000000000000000000000000000000081565b7f00000000000000000000000000000000000000000000000000000000000000006106c8576040517f08c379a00000000000000000000000000000000000000000000000000000000081526004016106bf90610fda565b60405180910390fd5b7f000000000000000000000000000000000000000000000000000000000000000073ffffffffffffffffffffffffffffffffffffffff163373ffffffffffffffffffffffffffffffffffffffff16148061076d57507f000000000000000000000000000000000000000000000000000000000000000073ffffffffffffffffffffffffffffffffffffffff163373ffffffffffffffffffffffffffffffffffffffff16145b6107ac576040517f08c379a00000000000000000000000000000000000000000000000000000000081526004016107a390611046565b60405180910390fd5b60008060009054906101000a900473ffffffffffffffffffffffffffffffffffffffff1673ffffffffffffffffffffffffffffffffffffffff166370a08231306040518263ffffffff1660e01b81526004016108089190610cb0565b602060405180830381865afa158015610825573d6000803e3d6000fd5b505050506040513d601f19601f820116820180604052508101906108499190610ebe565b90506000811161088e576040517f08c379a000000000000000000000000000000000000000000000000000000000815260040161088590610f37565b60405180910390fd5b6108f97f00000000000000000000000000000000000000000000000000000000000000008260008054906101000a900473ffffffffffffffffffffffffffffffffffffffff1673ffffffffffffffffffffffffffffffffffffffff166109a29092919063ffffffff16565b7fec9ab91322523c899ede7830ec9bfc992b5981cdcc27b91162fb23de5791117b7f00000000000000000000000000000000000000000000000000000000000000008260405161094a929190611066565b60405180910390a150565b7f000000000000000000000000000000000000000000000000000000000000000081565b60008060009054906101000a900473ffffffffffffffffffffffffffffffffffffffff16905090565b610a1c838473ffffffffffffffffffffffffffffffffffffffff1663a9059cbb85856040516024016109d5929190611066565b604051602081830303815290604052915060e01b6020820180517bffffffffffffffffffffffffffffffffffffffffffffffffffffffff8381831617835250505050610a21565b505050565b6000610a4c828473ffffffffffffffffffffffffffffffffffffffff16610ab890919063ffffffff16565b90506000815114158015610a71575080806020019051810190610a6f91906110bb565b155b15610ab357826040517f5274afe7000000000000000000000000000000000000000000000000000000008152600401610aaa9190610cb0565b60405180910390fd5b505050565b6060610ac683836000610ace565b905092915050565b606081471015610b1557306040517fcd786059000000000000000000000000000000000000000000000000000000008152600401610b0c9190610cb0565b60405180910390fd5b6000808573ffffffffffffffffffffffffffffffffffffffff168486604051610b3e9190611159565b60006040518083038185875af1925050503d8060008114610b7b576040519150601f19603f3d011682016040523d82523d6000602084013e610b80565b606091505b5091509150610b90868383610b9b565b925050509392505050565b606082610bb057610bab82610c2a565b610c22565b60008251148015610bd8575060008473ffffffffffffffffffffffffffffffffffffffff163b145b15610c1a57836040517f9996b315000000000000000000000000000000000000000000000000000000008152600401610c119190610cb0565b60405180910390fd5b819050610c23565b5b9392505050565b600081511115610c3d5780518082602001fd5b6040517f1425ea4200000000000000000000000000000000000000000000000000000000815260040160405180910390fd5b600073ffffffffffffffffffffffffffffffffffffffff82169050919050565b6000610c9a82610c6f565b9050919050565b610caa81610c8f565b82525050565b6000602082019050610cc56000830184610ca1565b92915050565b6000819050919050565b610cde81610ccb565b82525050565b60008115159050919050565b610cf981610ce4565b82525050565b600060c082019050610d146000830189610ca1565b610d216020830188610ca1565b610d2e6040830187610cd5565b610d3b6060830186610cf0565b610d486080830185610cd5565b610d5560a0830184610ca1565b979650505050505050565b6000602082019050610d756000830184610cd5565b92915050565b6000602082019050610d906000830184610cf0565b92915050565b6000819050919050565b6000610dbb610db6610db184610c6f565b610d96565b610c6f565b9050919050565b6000610dcd82610da0565b9050919050565b6000610ddf82610dc2565b9050919050565b610def81610dd4565b82525050565b6000602082019050610e0a6000830184610de6565b92915050565b600082825260208201905092915050565b7f4c3a206e6f742079657400000000000000000000000000000000000000000000600082015250565b6000610e57600a83610e10565b9150610e6282610e21565b602082019050919050565b60006020820190508181036000830152610e8681610e4a565b9050919050565b600080fd5b610e9b81610ccb565b8114610ea657600080fd5b50565b600081519050610eb881610e92565b92915050565b600060208284031215610ed457610ed3610e8d565b5b6000610ee284828501610ea9565b91505092915050565b7f4c3a206e6f20746f6b656e730000000000000000000000000000000000000000600082015250565b6000610f21600c83610e10565b9150610f2c82610eeb565b602082019050919050565b60006020820190508181036000830152610f5081610f14565b9050919050565b6000606082019050610f6c6000830186610ca1565b610f796020830185610cd5565b610f866040830184610cd5565b949350505050565b7f4c3a206e6f74207265766f6361626c6500000000000000000000000000000000600082015250565b6000610fc4601083610e10565b9150610fcf82610f8e565b602082019050919050565b60006020820190508181036000830152610ff381610fb7565b9050919050565b7f4c3a206e6f207065726d697373696f6e00000000000000000000000000000000600082015250565b6000611030601083610e10565b915061103b82610ffa565b602082019050919050565b6000602082019050818103600083015261105f81611023565b9050919050565b600060408201905061107b6000830185610ca1565b6110886020830184610cd5565b9392505050565b61109881610ce4565b81146110a357600080fd5b50565b6000815190506110b58161108f565b92915050565b6000602082840312156110d1576110d0610e8d565b5b60006110df848285016110a6565b91505092915050565b600081519050919050565b600081905092915050565b60005b8381101561111c578082015181840152602081019050611101565b60008484015250505050565b6000611133826110e8565b61113d81856110f3565b935061114d8185602086016110fe565b80840191505092915050565b60006111658284611128565b91508190509291505056fea26469706673582212208bb8d6ca68eb92d31c42dd4be51d62497043b56d0f560281171d0010e41ee05c64736f6c634300081a0033",
  "linkReferences": {},
  "deployedLinkReferences": {}
}