{
  "_format": "hh-sol-artifact-1",
  "contractName": "BunToken",
  "sourceName": "contracts/BunToken.sol",
  "abi": [
    {
      "inputs": [
        {
          "internalType": "address",
          "name": "initialOwner",
          "type": "address"
        }
      ],
      "stateMutability": "nonpayable",
      "type": "constructor"
    },
    {
      "inputs": [],
      "name": "AccessControlBadConfirmation",
      "type": "error"
    },
    {
      "inputs": [
        {
          "internalType": "address",
          "name": "account",
          "type": "address"
        },
        {
          "internalType": "bytes32",
          "name": "neededRole",
          "type": "bytes32"
        }
      ],
      "name": "AccessControlUnauthorizedAccount",
      "type": "error"
    },
    {
      "inputs": [],
      "name": "ECDSAInvalidSignature",
      "type": "error"
    },
    {
      "inputs": [
        {
          "internalType": "uint256",
          "name": "length",
          "type": "uint256"
        }
      ],
      "name": "ECDSAInvalidSignatureLength",
      "type": "error"
    },
    {
      "inputs": [
        {
          "internalType": "bytes32",
          "name": "s",
          "type": "bytes32"
        }
      ],
      "name": "ECDSAInvalidSignatureS",
      "type": "error"
    },
    {
      "inputs": [
        {
          "internalType": "address",
          "name": "spender",
          "type": "address"
        },
        {
          "internalType": "uint256",
          "name": "allowance",
          "type": "uint256"
        },
        {
          "internalType": "uint256",
          "name": "needed",
          "type": "uint256"
        }
      ],
      "name": "ERC20InsufficientAllowance",
      "type": "error"
    },
    {
      "inputs": [
        {
          "internalType": "address",
          "name": "sender",
          "type": "address"
        },
        {
          "internalType": "uint256",
          "name": "balance",
          "type": "uint256"
        },
        {
          "internalType": "uint256",
          "name": "needed",
          "type": "uint256"
        }
      ],
      "name": "ERC20InsufficientBalance",
      "type": "error"
    },
    {
      "inputs": [
        {
          "internalType": "address",
          "name": "approver",
          "type": "address"
        }
      ],
      "name": "ERC20InvalidApprover",
      "type": "error"
    },
    {
      "inputs": [
        {
          "internalType": "address",
          "name": "receiver",
          "type": "address"
        }
      ],
      "name": "ERC20InvalidReceiver",
      "type": "error"
    },
    {
      "inputs": [
        {
          "internalType": "address",
          "name": "sender",
          "type": "address"
        }
      ],
      "name": "ERC20InvalidSender",
      "type": "error"
    },
    {
      "inputs": [
        {
          "internalType": "address",
          "name": "spender",
          "type": "address"
        }
      ],
      "name": "ERC20InvalidSpender",
      "type": "error"
    },
    {
      "inputs": [
        {
          "internalType": "uint256",
          "name": "deadline",
          "type": "uint256"
        }
      ],
      "name": "ERC2612ExpiredSignature",
      "type": "error"
    },
    {
      "inputs": [
        {
          "internalType": "address",
          "name": "signer",
          "type": "address"
        },
        {
          "internalType": "address",
          "name": "owner",
          "type": "address"
        }
      ],
      "name": "ERC2612InvalidSigner",
      "type": "error"
    },
    {
      "inputs": [],
      "name": "EnforcedPause",
      "type": "error"
    },
    {
      "inputs": [],
      "name": "ExpectedPause",
      "type": "error"
    },
    {
      "inputs": [
        {
          "internalType": "address",
          "name": "account",
          "type": "address"
        },
        {
          "internalType": "uint256",
          "name": "currentNonce",
          "type": "uint256"
        }
      ],
      "name": "InvalidAccountNonce",
      "type": "error"
    },
    {
      "inputs": [],
      "name": "InvalidShortString",
      "type": "error"
    },
    {
      "inputs": [
        {
          "internalType": "address",
          "name": "owner",
          "type": "address"
        }
      ],
      "name": "OwnableInvalidOwner",
      "type": "error"
    },
    {
      "inputs": [
        {
          "internalType": "address",
          "name": "account",
          "type": "address"
        }
      ],
      "name": "OwnableUnauthorizedAccount",
      "type": "error"
    },
    {
      "inputs": [
        {
          "internalType": "string",
          "name": "str",
          "type": "string"
        }
      ],
      "name": "StringTooLong",
      "type": "error"
    },
    {
      "anonymous": false,
      "inputs": [
        {
          "indexed": true,
          "internalType": "address",
          "name": "owner",
          "type": "address"
        },
        {
          "indexed": true,
          "internalType": "address",
          "name": "spender",
          "type": "address"
        },
        {
          "indexed": false,
          "internalType": "uint256",
          "name": "value",
          "type": "uint256"
        }
      ],
      "name": "Approval",
      "type": "event"
    },
    {
      "anonymous": false,
      "inputs": [],
      "name": "EIP712DomainChanged",
      "type": "event"
    },
    {
      "anonymous": false,
      "inputs": [
        {
          "indexed": true,
          "internalType": "address",
          "name": "previousOwner",
          "type": "address"
        },
        {
          "indexed": true,
          "internalType": "address",
          "name": "newOwner",
          "type": "address"
        }
      ],
      "name": "OwnershipTransferred",
      "type": "event"
    },
    {
      "anonymous": false,
      "inputs": [
        {
          "indexed": false,
          "internalType": "address",
          "name": "account",
          "type": "address"
        }
      ],
      "name": "Paused",
      "type": "event"
    },
    {
      "anonymous": false,
      "inputs": [
        {
          "indexed": true,
          "internalType": "bytes32",
          "name": "role",
          "type": "bytes32"
        },
        {
          "indexed": true,
          "internalType": "bytes32",
          "name": "previousAdminRole",
          "type": "bytes32"
        },
        {
          "indexed": true,
          "internalType": "bytes32",
          "name": "newAdminRole",
          "type": "bytes32"
        }
      ],
      "name": "RoleAdminChanged",
      "type": "event"
    },
    {
      "anonymous": false,
      "inputs": [
        {
          "indexed": true,
          "internalType": "string",
          "name": "role",
          "type": "string"
        },
        {
          "indexed": true,
          "internalType": "address",
          "name": "granter",
          "type": "address"
        },
        {
          "indexed": true,
          "internalType": "address",
          "name": "grantee",
          "type": "address"
        },
        {
          "indexed": false,
          "internalType": "uint256",
          "name": "logTime",
          "type": "uint256"
        }
      ],
      "name": "RoleChanged",
      "type": "event"
    },
    {
      "anonymous": false,
      "inputs": [
        {
          "indexed": true,
          "internalType": "bytes32",
          "name": "role",
          "type": "bytes32"
        },
        {
          "indexed": true,
          "internalType": "address",
          "name": "account",
          "type": "address"
        },
        {
          "indexed": true,
          "internalType": "address",
          "name": "sender",
          "type": "address"
        }
      ],
      "name": "RoleGranted",
      "type": "event"
    },
    {
      "anonymous": false,
      "inputs": [
        {
          "indexed": true,
          "internalType": "bytes32",
          "name": "role",
          "type": "bytes32"
        },
        {
          "indexed": true,
          "internalType": "address",
          "name": "account",
          "type": "address"
        },
        {
          "indexed": true,
          "internalType": "address",
          "name": "sender",
          "type": "address"
        }
      ],
      "name": "RoleRevoked",
      "type": "event"
    },
    {
      "anonymous": false,
      "inputs": [
        {
          "indexed": true,
          "internalType": "address",
          "name": "lockedToken",
          "type": "address"
        },
        {
          "indexed": true,
          "internalType": "address",
          "name": "donor",
          "type": "address"
        },
        {
          "indexed": true,
          "internalType": "address",
          "name": "beneficiary",
          "type": "address"
        },
        {
          "indexed": false,
          "internalType": "uint256",
          "name": "amount",
          "type": "uint256"
        },
        {
          "indexed": false,
          "internalType": "uint256",
          "name": "releaseTime",
          "type": "uint256"
        },
        {
          "indexed": false,
          "internalType": "bool",
          "name": "revocable",
          "type": "bool"
        },
        {
          "indexed": false,
          "internalType": "address",
          "name": "system",
          "type": "address"
        },
        {
          "indexed": false,
          "internalType": "uint256",
          "name": "logTime",
          "type": "uint256"
        }
      ],
      "name": "TokenLock",
      "type": "event"
    },
    {
      "anonymous": false,
      "inputs": [
        {
          "indexed": true,
          "internalType": "address",
          "name": "from",
          "type": "address"
        },
        {
          "indexed": true,
          "internalType": "address",
          "name": "to",
          "type": "address"
        },
        {
          "indexed": false,
          "internalType": "uint256",
          "name": "value",
          "type": "uint256"
        }
      ],
      "name": "Transfer",
      "type": "event"
    },
    {
      "anonymous": false,
      "inputs": [
        {
          "indexed": false,
          "internalType": "address",
          "name": "account",
          "type": "address"
        }
      ],
      "name": "Unpaused",
      "type": "event"
    },
    {
      "inputs": [],
      "name": "DEFAULT_ADMIN_ROLE",
      "outputs": [
        {
          "internalType": "bytes32",
          "name": "",
          "type": "bytes32"
        }
      ],
      "stateMutability": "view",
      "type": "function"
    },
    {
      "inputs": [],
      "name": "DOMAIN_SEPARATOR",
      "outputs": [
        {
          "internalType": "bytes32",
          "name": "",
          "type": "bytes32"
        }
      ],
      "stateMutability": "view",
      "type": "function"
    },
    {
      "inputs": [],
      "name": "SYSTEM_ROLE",
      "outputs": [
        {
          "internalType": "bytes32",
          "name": "",
          "type": "bytes32"
        }
      ],
      "stateMutability": "view",
      "type": "function"
    },
    {
      "inputs": [
        {
          "internalType": "address",
          "name": "_account",
          "type": "address"
        }
      ],
      "name": "addAdmin",
      "outputs": [
        {
          "internalType": "bool",
          "name": "",
          "type": "bool"
        }
      ],
      "stateMutability": "nonpayable",
      "type": "function"
    },
    {
      "inputs": [
        {
          "internalType": "address",
          "name": "owner",
          "type": "address"
        },
        {
          "internalType": "address",
          "name": "spender",
          "type": "address"
        }
      ],
      "name": "allowance",
      "outputs": [
        {
          "internalType": "uint256",
          "name": "",
          "type": "uint256"
        }
      ],
      "stateMutability": "view",
      "type": "function"
    },
    {
      "inputs": [
        {
          "internalType": "address",
          "name": "spender",
          "type": "address"
        },
        {
          "internalType": "uint256",
          "name": "value",
          "type": "uint256"
        }
      ],
      "name": "approve",
      "outputs": [
        {
          "internalType": "bool",
          "name": "",
          "type": "bool"
        }
      ],
      "stateMutability": "nonpayable",
      "type": "function"
    },
    {
      "inputs": [
        {
          "internalType": "address",
          "name": "account",
          "type": "address"
        }
      ],
      "name": "balanceOf",
      "outputs": [
        {
          "internalType": "uint256",
          "name": "",
          "type": "uint256"
        }
      ],
      "stateMutability": "view",
      "type": "function"
    },
    {
      "inputs": [
        {
          "internalType": "address[]",
          "name": "recipients",
          "type": "address[]"
        },
        {
          "internalType": "uint256[]",
          "name": "amount",
          "type": "uint256[]"
        }
      ],
      "name": "batchTransfer",
      "outputs": [
        {
          "internalType": "bool",
          "name": "",
          "type": "bool"
        }
      ],
      "stateMutability": "nonpayable",
      "type": "function"
    },
    {
      "inputs": [
        {
          "internalType": "address[]",
          "name": "senders",
          "type": "address[]"
        },
        {
          "internalType": "address[]",
          "name": "recipients",
          "type": "address[]"
        },
        {
          "internalType": "uint256[]",
          "name": "amount",
          "type": "uint256[]"
        }
      ],
      "name": "batchTransferFrom",
      "outputs": [
        {
          "internalType": "bool",
          "name": "",
          "type": "bool"
        }
      ],
      "stateMutability": "nonpayable",
      "type": "function"
    },
    {
      "inputs": [
        {
          "internalType": "uint256",
          "name": "value",
          "type": "uint256"
        }
      ],
      "name": "burn",
      "outputs": [],
      "stateMutability": "nonpayable",
      "type": "function"
    },
    {
      "inputs": [
        {
          "internalType": "address",
          "name": "account",
          "type": "address"
        },
        {
          "internalType": "uint256",
          "name": "value",
          "type": "uint256"
        }
      ],
      "name": "burnFrom",
      "outputs": [],
      "stateMutability": "nonpayable",
      "type": "function"
    },
    {
      "inputs": [
        {
          "internalType": "contract LockedToken",
          "name": "_lockToken",
          "type": "address"
        }
      ],
      "name": "claimLockedToken",
      "outputs": [],
      "stateMutability": "nonpayable",
      "type": "function"
    },
    {
      "inputs": [],
      "name": "decimals",
      "outputs": [
        {
          "internalType": "uint8",
          "name": "",
          "type": "uint8"
        }
      ],
      "stateMutability": "view",
      "type": "function"
    },
    {
      "inputs": [],
      "name": "eip712Domain",
      "outputs": [
        {
          "internalType": "bytes1",
          "name": "fields",
          "type": "bytes1"
        },
        {
          "internalType": "string",
          "name": "name",
          "type": "string"
        },
        {
          "internalType": "string",
          "name": "version",
          "type": "string"
        },
        {
          "internalType": "uint256",
          "name": "chainId",
          "type": "uint256"
        },
        {
          "internalType": "address",
          "name": "verifyingContract",
          "type": "address"
        },
        {
          "internalType": "bytes32",
          "name": "salt",
          "type": "bytes32"
        },
        {
          "internalType": "uint256[]",
          "name": "extensions",
          "type": "uint256[]"
        }
      ],
      "stateMutability": "view",
      "type": "function"
    },
    {
      "inputs": [
        {
          "internalType": "contract LockedToken",
          "name": "_lockToken",
          "type": "address"
        }
      ],
      "name": "getLockedTokenInfo",
      "outputs": [
        {
          "internalType": "address",
          "name": "",
          "type": "address"
        },
        {
          "internalType": "address",
          "name": "",
          "type": "address"
        },
        {
          "internalType": "address",
          "name": "",
          "type": "address"
        },
        {
          "internalType": "uint256",
          "name": "",
          "type": "uint256"
        },
        {
          "internalType": "bool",
          "name": "",
          "type": "bool"
        },
        {
          "internalType": "uint256",
          "name": "",
          "type": "uint256"
        },
        {
          "internalType": "uint256",
          "name": "",
          "type": "uint256"
        }
      ],
      "stateMutability": "view",
      "type": "function"
    },
    {
      "inputs": [
        {
          "internalType": "bytes32",
          "name": "role",
          "type": "bytes32"
        }
      ],
      "name": "getRoleAdmin",
      "outputs": [
        {
          "internalType": "bytes32",
          "name": "",
          "type": "bytes32"
        }
      ],
      "stateMutability": "view",
      "type": "function"
    },
    {
      "inputs": [
        {
          "internalType": "bytes32",
          "name": "role",
          "type": "bytes32"
        },
        {
          "internalType": "address",
          "name": "account",
          "type": "address"
        }
      ],
      "name": "grantRole",
      "outputs": [],
      "stateMutability": "nonpayable",
      "type": "function"
    },
    {
      "inputs": [
        {
          "internalType": "bytes32",
          "name": "role",
          "type": "bytes32"
        },
        {
          "internalType": "address",
          "name": "account",
          "type": "address"
        }
      ],
      "name": "hasRole",
      "outputs": [
        {
          "internalType": "bool",
          "name": "",
          "type": "bool"
        }
      ],
      "stateMutability": "view",
      "type": "function"
    },
    {
      "inputs": [
        {
          "internalType": "address",
          "name": "_donor",
          "type": "address"
        },
        {
          "internalType": "address",
          "name": "_beneficiary",
          "type": "address"
        },
        {
          "internalType": "uint256",
          "name": "_amount",
          "type": "uint256"
        },
        {
          "internalType": "uint256",
          "name": "_duration",
          "type": "uint256"
        },
        {
          "internalType": "uint256",
          "name": "_durationUnitInSec",
          "type": "uint256"
        },
        {
          "internalType": "bool",
          "name": "_revocable",
          "type": "bool"
        }
      ],
      "name": "lockToken",
      "outputs": [
        {
          "internalType": "contract LockedToken",
          "name": "",
          "type": "address"
        }
      ],
      "stateMutability": "nonpayable",
      "type": "function"
    },
    {
      "inputs": [],
      "name": "name",
      "outputs": [
        {
          "internalType": "string",
          "name": "",
          "type": "string"
        }
      ],
      "stateMutability": "view",
      "type": "function"
    },
    {
      "inputs": [
        {
          "internalType": "address",
          "name": "owner",
          "type": "address"
        }
      ],
      "name": "nonces",
      "outputs": [
        {
          "internalType": "uint256",
          "name": "",
          "type": "uint256"
        }
      ],
      "stateMutability": "view",
      "type": "function"
    },
    {
      "inputs": [],
      "name": "owner",
      "outputs": [
        {
          "internalType": "address",
          "name": "",
          "type": "address"
        }
      ],
      "stateMutability": "view",
      "type": "function"
    },
    {
      "inputs": [],
      "name": "pause",
      "outputs": [],
      "stateMutability": "nonpayable",
      "type": "function"
    },
    {
      "inputs": [],
      "name": "paused",
      "outputs": [
        {
          "internalType": "bool",
          "name": "",
          "type": "bool"
        }
      ],
      "stateMutability": "view",
      "type": "function"
    },
    {
      "inputs": [
        {
          "internalType": "address",
          "name": "owner",
          "type": "address"
        },
        {
          "internalType": "address",
          "name": "spender",
          "type": "address"
        },
        {
          "internalType": "uint256",
          "name": "value",
          "type": "uint256"
        },
        {
          "internalType": "uint256",
          "name": "deadline",
          "type": "uint256"
        },
        {
          "internalType": "uint8",
          "name": "v",
          "type": "uint8"
        },
        {
          "internalType": "bytes32",
          "name": "r",
          "type": "bytes32"
        },
        {
          "internalType": "bytes32",
          "name": "s",
          "type": "bytes32"
        }
      ],
      "name": "permit",
      "outputs": [],
      "stateMutability": "nonpayable",
      "type": "function"
    },
    {
      "inputs": [],
      "name": "renounceAdmin",
      "outputs": [
        {
          "internalType": "bool",
          "name": "",
          "type": "bool"
        }
      ],
      "stateMutability": "nonpayable",
      "type": "function"
    },
    {
      "inputs": [],
      "name": "renounceOwnership",
      "outputs": [],
      "stateMutability": "view",
      "type": "function"
    },
    {
      "inputs": [
        {
          "internalType": "bytes32",
          "name": "role",
          "type": "bytes32"
        },
        {
          "internalType": "address",
          "name": "callerConfirmation",
          "type": "address"
        }
      ],
      "name": "renounceRole",
      "outputs": [],
      "stateMutability": "nonpayable",
      "type": "function"
    },
    {
      "inputs": [
        {
          "internalType": "address",
          "name": "_account",
          "type": "address"
        }
      ],
      "name": "revokeAdmin",
      "outputs": [
        {
          "internalType": "bool",
          "name": "",
          "type": "bool"
        }
      ],
      "stateMutability": "nonpayable",
      "type": "function"
    },
    {
      "inputs": [
        {
          "internalType": "contract LockedToken",
          "name": "_lockToken",
          "type": "address"
        }
      ],
      "name": "revokeLockedToken",
      "outputs": [],
      "stateMutability": "nonpayable",
      "type": "function"
    },
    {
      "inputs": [
        {
          "internalType": "bytes32",
          "name": "role",
          "type": "bytes32"
        },
        {
          "internalType": "address",
          "name": "account",
          "type": "address"
        }
      ],
      "name": "revokeRole",
      "outputs": [],
      "stateMutability": "nonpayable",
      "type": "function"
    },
    {
      "inputs": [
        {
          "internalType": "bytes4",
          "name": "interfaceId",
          "type": "bytes4"
        }
      ],
      "name": "supportsInterface",
      "outputs": [
        {
          "internalType": "bool",
          "name": "",
          "type": "bool"
        }
      ],
      "stateMutability": "view",
      "type": "function"
    },
    {
      "inputs": [],
      "name": "symbol",
      "outputs": [
        {
          "internalType": "string",
          "name": "",
          "type": "string"
        }
      ],
      "stateMutability": "view",
      "type": "function"
    },
    {
      "inputs": [],
      "name": "totalSupply",
      "outputs": [
        {
          "internalType": "uint256",
          "name": "",
          "type": "uint256"
        }
      ],
      "stateMutability": "view",
      "type": "function"
    },
    {
      "inputs": [
        {
          "internalType": "address",
          "name": "to",
          "type": "address"
        },
        {
          "internalType": "uint256",
          "name": "value",
          "type": "uint256"
        }
      ],
      "name": "transfer",
      "outputs": [
        {
          "internalType": "bool",
          "name": "",
          "type": "bool"
        }
      ],
      "stateMutability": "nonpayable",
      "type": "function"
    },
    {
      "inputs": [
        {
          "internalType": "address",
          "name": "from",
          "type": "address"
        },
        {
          "internalType": "address",
          "name": "to",
          "type": "address"
        },
        {
          "internalType": "uint256",
          "name": "value",
          "type": "uint256"
        }
      ],
      "name": "transferFrom",
      "outputs": [
        {
          "internalType": "bool",
          "name": "",
          "type": "bool"
        }
      ],
      "stateMutability": "nonpayable",
      "type": "function"
    },
    {
      "inputs": [
        {
          "internalType": "address",
          "name": "_account",
          "type": "address"
        }
      ],
      "name": "transferOwnership",
      "outputs": [],
      "stateMutability": "nonpayable",
      "type": "function"
    },
    {
      "inputs": [],
      "name": "unpause",
      "outputs": [],
      "stateMutability": "nonpayable",
      "type": "function"
    }
  ],
  "bytecode": "0x61016060405234801561001157600080fd5b50604051616f2b380380616f2b83398181016040528101906100339190610cae565b6040518060400160405280601181526020017f426f756e646c657373204e6574776f726b000000000000000000000000000000815250806040518060400160405280600181526020017f31000000000000000000000000000000000000000000000000000000000000008152506100ae6102d160201b60201c565b6040518060400160405280601181526020017f426f756e646c657373204e6574776f726b0000000000000000000000000000008152506040518060400160405280600381526020017f42554e000000000000000000000000000000000000000000000000000000000081525081600390816101299190610f2b565b5080600490816101399190610f2b565b5050506000600560006101000a81548160ff021916908315150217905550600073ffffffffffffffffffffffffffffffffffffffff168173ffffffffffffffffffffffffffffffffffffffff16036101c95760006040517f1e4fbdf70000000000000000000000000000000000000000000000000000000081526004016101c0919061100c565b60405180910390fd5b6101d8816102d960201b60201c565b506101ed60088361039f60201b90919060201c565b610120818152505061020960098261039f60201b90919060201c565b6101408181525050818051906020012060e08181525050808051906020012061010081815250504660a081815250506102466103ef60201b60201c565b608081815250503073ffffffffffffffffffffffffffffffffffffffff1660c08173ffffffffffffffffffffffffffffffffffffffff16815250505050506102bc8161029661044a60201b60201c565b600a6102a29190611196565b633b9aca006102b191906111e1565b61045360201b60201c565b6102cb816104db60201b60201c565b5061153a565b600033905090565b6000600760009054906101000a900473ffffffffffffffffffffffffffffffffffffffff16905081600760006101000a81548173ffffffffffffffffffffffffffffffffffffffff021916908373ffffffffffffffffffffffffffffffffffffffff1602179055508173ffffffffffffffffffffffffffffffffffffffff168173ffffffffffffffffffffffffffffffffffffffff167f8be0079c531659141344cd1fd0a4f28419497f9722a3daafe3b4186f6b6457e060405160405180910390a35050565b60006020835110156103c1576103ba8361050b60201b60201c565b90506103e9565b826103d18361057360201b60201c565b60000190816103e09190610f2b565b5060ff60001b90505b92915050565b60007f8b73c3c69bb8fe3d512ecc4cf759cc79239f7b179b0ffacaa9a75d522b39400f60e05161010051463060405160200161042f95949392919061124b565b60405160208183030381529060405280519060200120905090565b60006012905090565b600073ffffffffffffffffffffffffffffffffffffffff168273ffffffffffffffffffffffffffffffffffffffff16036104c55760006040517fec442f050000000000000000000000000000000000000000000000000000000081526004016104bc919061100c565b60405180910390fd5b6104d76000838361057d60201b60201c565b5050565b6104e961059360201b60201c565b6104f88161062c60201b60201c565b506105088161077f60201b60201c565b50565b600080829050601f8151111561055857826040517f305a27a900000000000000000000000000000000000000000000000000000000815260040161054f9190611323565b60405180910390fd5b80518161056490611375565b60001c1760001b915050919050565b6000819050919050565b61058e83838361081160201b60201c565b505050565b6105a16102d160201b60201c565b73ffffffffffffffffffffffffffffffffffffffff166105c561083560201b60201c565b73ffffffffffffffffffffffffffffffffffffffff161461062a576105ee6102d160201b60201c565b6040517f118cdaa7000000000000000000000000000000000000000000000000000000008152600401610621919061100c565b60405180910390fd5b565b600061063c61059360201b60201c565b600073ffffffffffffffffffffffffffffffffffffffff168273ffffffffffffffffffffffffffffffffffffffff16036106ab576040517f08c379a00000000000000000000000000000000000000000000000000000000081526004016106a290611428565b60405180910390fd5b6106be6000801b8361085f60201b60201c565b506106ef7f5719df9ef2c4678b547f89e4f5ae410dbf400fc51cf3ded434c55f6adea2c43f8361085f60201b60201c565b508173ffffffffffffffffffffffffffffffffffffffff166107156102d160201b60201c565b73ffffffffffffffffffffffffffffffffffffffff166040516107379061149f565b60405180910390207f462b260bb7f1f6a55b13af8a2b24801cc187d85f27af3308bca5428016aa2ad74260405161076e91906114b4565b60405180910390a460019050919050565b61078d61059360201b60201c565b600073ffffffffffffffffffffffffffffffffffffffff168173ffffffffffffffffffffffffffffffffffffffff16036107ff5760006040517f1e4fbdf70000000000000000000000000000000000000000000000000000000081526004016107f6919061100c565b60405180910390fd5b61080e816102d960201b60201c565b50565b61081f61095d60201b60201c565b6108308383836109a460201b60201c565b505050565b6000600760009054906101000a900473ffffffffffffffffffffffffffffffffffffffff16905090565b60006108718383610bc960201b60201c565b6109525760016006600085815260200190815260200160002060000160008473ffffffffffffffffffffffffffffffffffffffff1673ffffffffffffffffffffffffffffffffffffffff16815260200190815260200160002060006101000a81548160ff0219169083151502179055506108ef6102d160201b60201c565b73ffffffffffffffffffffffffffffffffffffffff168273ffffffffffffffffffffffffffffffffffffffff16847f2f8788117e7eff1d82e926ec794901d17c78024a50270940304540a733656f0d60405160405180910390a460019050610957565b600090505b92915050565b61096b610c3460201b60201c565b156109a2576040517fd93c066500000000000000000000000000000000000000000000000000000000815260040160405180910390fd5b565b600073ffffffffffffffffffffffffffffffffffffffff168373ffffffffffffffffffffffffffffffffffffffff16036109f65780600260008282546109ea91906114cf565b92505081905550610ac9565b60008060008573ffffffffffffffffffffffffffffffffffffffff1673ffffffffffffffffffffffffffffffffffffffff16815260200190815260200160002054905081811015610a82578381836040517fe450d38c000000000000000000000000000000000000000000000000000000008152600401610a7993929190611503565b60405180910390fd5b8181036000808673ffffffffffffffffffffffffffffffffffffffff1673ffffffffffffffffffffffffffffffffffffffff16815260200190815260200160002081905550505b600073ffffffffffffffffffffffffffffffffffffffff168273ffffffffffffffffffffffffffffffffffffffff1603610b125780600260008282540392505081905550610b5f565b806000808473ffffffffffffffffffffffffffffffffffffffff1673ffffffffffffffffffffffffffffffffffffffff168152602001908152602001600020600082825401925050819055505b8173ffffffffffffffffffffffffffffffffffffffff168373ffffffffffffffffffffffffffffffffffffffff167fddf252ad1be2c89b69c2b068fc378daa952ba7f163c4a11628f55a4df523b3ef83604051610bbc91906114b4565b60405180910390a3505050565b60006006600084815260200190815260200160002060000160008373ffffffffffffffffffffffffffffffffffffffff1673ffffffffffffffffffffffffffffffffffffffff16815260200190815260200160002060009054906101000a900460ff16905092915050565b6000600560009054906101000a900460ff16905090565b600080fd5b600073ffffffffffffffffffffffffffffffffffffffff82169050919050565b6000610c7b82610c50565b9050919050565b610c8b81610c70565b8114610c9657600080fd5b50565b600081519050610ca881610c82565b92915050565b600060208284031215610cc457610cc3610c4b565b5b6000610cd284828501610c99565b91505092915050565b600081519050919050565b7f4e487b7100000000000000000000000000000000000000000000000000000000600052604160045260246000fd5b7f4e487b7100000000000000000000000000000000000000000000000000000000600052602260045260246000fd5b60006002820490506001821680610d5c57607f821691505b602082108103610d6f57610d6e610d15565b5b50919050565b60008190508160005260206000209050919050565b60006020601f8301049050919050565b600082821b905092915050565b600060088302610dd77fffffffffffffffffffffffffffffffffffffffffffffffffffffffffffffffff82610d9a565b610de18683610d9a565b95508019841693508086168417925050509392505050565b6000819050919050565b6000819050919050565b6000610e28610e23610e1e84610df9565b610e03565b610df9565b9050919050565b6000819050919050565b610e4283610e0d565b610e56610e4e82610e2f565b848454610da7565b825550505050565b600090565b610e6b610e5e565b610e76818484610e39565b505050565b5b81811015610e9a57610e8f600082610e63565b600181019050610e7c565b5050565b601f821115610edf57610eb081610d75565b610eb984610d8a565b81016020851015610ec8578190505b610edc610ed485610d8a565b830182610e7b565b50505b505050565b600082821c905092915050565b6000610f0260001984600802610ee4565b1980831691505092915050565b6000610f1b8383610ef1565b9150826002028217905092915050565b610f3482610cdb565b67ffffffffffffffff811115610f4d57610f4c610ce6565b5b610f578254610d44565b610f62828285610e9e565b600060209050601f831160018114610f955760008415610f83578287015190505b610f8d8582610f0f565b865550610ff5565b601f198416610fa386610d75565b60005b82811015610fcb57848901518255600182019150602085019450602081019050610fa6565b86831015610fe85784890151610fe4601f891682610ef1565b8355505b6001600288020188555050505b505050505050565b61100681610c70565b82525050565b60006020820190506110216000830184610ffd565b92915050565b7f4e487b7100000000000000000000000000000000000000000000000000000000600052601160045260246000fd5b60008160011c9050919050565b6000808291508390505b60018511156110ad5780860481111561108957611088611027565b5b60018516156110985780820291505b80810290506110a685611056565b945061106d565b94509492505050565b6000826110c65760019050611182565b816110d45760009050611182565b81600181146110ea57600281146110f457611123565b6001915050611182565b60ff84111561110657611105611027565b5b8360020a91508482111561111d5761111c611027565b5b50611182565b5060208310610133831016604e8410600b84101617156111585782820a90508381111561115357611152611027565b5b611182565b6111658484846001611063565b9250905081840481111561117c5761117b611027565b5b81810290505b9392505050565b600060ff82169050919050565b60006111a182610df9565b91506111ac83611189565b92506111d97fffffffffffffffffffffffffffffffffffffffffffffffffffffffffffffffff84846110b6565b905092915050565b60006111ec82610df9565b91506111f783610df9565b925082820261120581610df9565b9150828204841483151761121c5761121b611027565b5b5092915050565b6000819050919050565b61123681611223565b82525050565b61124581610df9565b82525050565b600060a082019050611260600083018861122d565b61126d602083018761122d565b61127a604083018661122d565b611287606083018561123c565b6112946080830184610ffd565b9695505050505050565b600082825260208201905092915050565b60005b838110156112cd5780820151818401526020810190506112b2565b60008484015250505050565b6000601f19601f8301169050919050565b60006112f582610cdb565b6112ff818561129e565b935061130f8185602086016112af565b611318816112d9565b840191505092915050565b6000602082019050818103600083015261133d81846112ea565b905092915050565b600081519050919050565b6000819050602082019050919050565b600061136c8251611223565b80915050919050565b600061138082611345565b8261138a84611350565b905061139581611360565b925060208210156113d5576113d07fffffffffffffffffffffffffffffffffffffffffffffffffffffffffffffffff83602003600802610d9a565b831692505b5050919050565b7f424e3a207a65726f206164647265737300000000000000000000000000000000600082015250565b600061141260108361129e565b915061141d826113dc565b602082019050919050565b6000602082019050818103600083015261144181611405565b9050919050565b600081905092915050565b7f61646441646d696e000000000000000000000000000000000000000000000000600082015250565b6000611489600883611448565b915061149482611453565b600882019050919050565b60006114aa8261147c565b9150819050919050565b60006020820190506114c9600083018461123c565b92915050565b60006114da82610df9565b91506114e583610df9565b92508282019050808211156114fd576114fc611027565b5b92915050565b60006060820190506115186000830186610ffd565b611525602083018561123c565b611532604083018461123c565b949350505050565b60805160a05160c05160e051610100516101205161014051615997611594600039600061214d01526000612112015260006125240152600061250301526000611cb101526000611d0701526000611d3001526159976000f3fe608060405234801561001057600080fd5b50600436106102325760003560e01c806379cc67901161013057806395d89b41116100b8578063d547741f1161007c578063d547741f146106c3578063dd62ed3e146106df578063ef36d2d41461070f578063f24500b81461073f578063f2fde38b1461075b57610232565b806395d89b411461060b578063a217fddf14610629578063a9059cbb14610647578063b818f9e414610677578063d505accf146106a757610232565b806388d695b2116100ff57806388d695b2146105535780638bad0c0a146105835780638da5cb5b146105a157806391bb1bec146105bf57806391d14854146105db57610232565b806379cc6790146104d95780637ecebe00146104f55780638456cb591461052557806384b0196e1461052f57610232565b80633644e515116101be5780636d0f86d3116101825780636d0f86d31461041b578063704802751461045157806370a0823114610481578063715018a6146104b157806375071d2a146104bb57610232565b80633644e5151461039d57806336568abe146103bb5780633f4ba83a146103d757806342966c68146103e15780635c975abb146103fd57610232565b806323b872dd1161020557806323b872dd146102d3578063248a9ca3146103035780632d345670146103335780632f2ff15d14610363578063313ce5671461037f57610232565b806301ffc9a71461023757806306fdde0314610267578063095ea7b31461028557806318160ddd146102b5575b600080fd5b610251600480360381019061024c9190612d74565b610777565b60405161025e9190612dbc565b60405180910390f35b61026f6107f1565b60405161027c9190612e67565b60405180910390f35b61029f600480360381019061029a9190612f1d565b610883565b6040516102ac9190612dbc565b60405180910390f35b6102bd6108a6565b6040516102ca9190612f6c565b60405180910390f35b6102ed60048036038101906102e89190612f87565b6108b0565b6040516102fa9190612dbc565b60405180910390f35b61031d60048036038101906103189190613010565b6108df565b60405161032a919061304c565b60405180910390f35b61034d60048036038101906103489190613067565b6108ff565b60405161035a9190612dbc565b60405180910390f35b61037d60048036038101906103789190613094565b610a44565b005b610387610a66565b60405161039491906130f0565b60405180910390f35b6103a5610a6f565b6040516103b2919061304c565b60405180910390f35b6103d560048036038101906103d09190613094565b610a7e565b005b6103df610af9565b005b6103fb60048036038101906103f6919061310b565b610b11565b005b610405610b25565b6040516104129190612dbc565b60405180910390f35b61043560048036038101906104309190613176565b610b3c565b60405161044897969594939291906131b2565b60405180910390f35b61046b60048036038101906104669190613067565b610e79565b6040516104789190612dbc565b60405180910390f35b61049b60048036038101906104969190613067565b610fb4565b6040516104a89190612f6c565b60405180910390f35b6104b9610ffc565b005b6104c361103f565b6040516104d0919061304c565b60405180910390f35b6104f360048036038101906104ee9190612f1d565b611063565b005b61050f600480360381019061050a9190613067565b611083565b60405161051c9190612f6c565b60405180910390f35b61052d611095565b005b6105376110ad565b60405161054a979695949392919061331a565b60405180910390f35b61056d60048036038101906105689190613459565b611157565b60405161057a9190612dbc565b60405180910390f35b61058b611252565b6040516105989190612dbc565b60405180910390f35b6105a9611277565b6040516105b691906134da565b60405180910390f35b6105d960048036038101906105d49190613176565b6112a1565b005b6105f560048036038101906105f09190613094565b611304565b6040516106029190612dbc565b60405180910390f35b61061361136f565b6040516106209190612e67565b60405180910390f35b610631611401565b60405161063e919061304c565b60405180910390f35b610661600480360381019061065c9190612f1d565b611408565b60405161066e9190612dbc565b60405180910390f35b610691600480360381019061068c91906134f5565b61142b565b60405161069e9190612dbc565b60405180910390f35b6106c160048036038101906106bc91906135d5565b611561565b005b6106dd60048036038101906106d89190613094565b6116a9565b005b6106f960048036038101906106f49190613677565b6116cb565b6040516107069190612f6c565b60405180910390f35b610729600480360381019061072491906136e3565b611752565b60405161073691906137cf565b60405180910390f35b61075960048036038101906107549190613176565b6118ef565b005b61077560048036038101906107709190613067565b61197d565b005b60007f7965db0b000000000000000000000000000000000000000000000000000000007bffffffffffffffffffffffffffffffffffffffffffffffffffffffff1916827bffffffffffffffffffffffffffffffffffffffffffffffffffffffff191614806107ea57506107e98261199b565b5b9050919050565b60606003805461080090613819565b80601f016020809104026020016040519081016040528092919081815260200182805461082c90613819565b80156108795780601f1061084e57610100808354040283529160200191610879565b820191906000526020600020905b81548152906001019060200180831161085c57829003601f168201915b5050505050905090565b60008061088e611a05565b905061089b818585611a0d565b600191505092915050565b6000600254905090565b6000806108bb611a05565b90506108c8858285611a1f565b6108d3858585611ab3565b60019150509392505050565b600060066000838152602001908152602001600020600101549050919050565b60008060001b61090e81611ba7565b610916611277565b73ffffffffffffffffffffffffffffffffffffffff168373ffffffffffffffffffffffffffffffffffffffff1603610983576040517f08c379a000000000000000000000000000000000000000000000000000000000815260040161097a90613896565b60405180910390fd5b6109ad7f5719df9ef2c4678b547f89e4f5ae410dbf400fc51cf3ded434c55f6adea2c43f846116a9565b6109ba6000801b846116a9565b8273ffffffffffffffffffffffffffffffffffffffff166109d9611a05565b73ffffffffffffffffffffffffffffffffffffffff166040516109fb9061390d565b60405180910390207f462b260bb7f1f6a55b13af8a2b24801cc187d85f27af3308bca5428016aa2ad742604051610a329190612f6c565b60405180910390a46001915050919050565b610a4d826108df565b610a5681611ba7565b610a608383611bbb565b50505050565b60006012905090565b6000610a79611cad565b905090565b610a86611a05565b73ffffffffffffffffffffffffffffffffffffffff168173ffffffffffffffffffffffffffffffffffffffff1614610aea576040517f6697b23200000000000000000000000000000000000000000000000000000000815260040160405180910390fd5b610af48282611d64565b505050565b6000801b610b0681611ba7565b610b0e611e57565b50565b610b22610b1c611a05565b82611eba565b50565b6000600560009054906101000a900460ff16905090565b600080600080600080600080610bbf8973ffffffffffffffffffffffffffffffffffffffff1663b91d40016040518163ffffffff1660e01b8152600401602060405180830381865afa158015610b96573d6000803e3d6000fd5b505050506040513d601f19601f82011682018060405250810190610bba9190613937565b611f3c565b50809150508873ffffffffffffffffffffffffffffffffffffffff1663fc0c546a6040518163ffffffff1660e01b8152600401602060405180830381865afa158015610c0f573d6000803e3d6000fd5b505050506040513d601f19601f82011682018060405250810190610c3391906139a2565b8973ffffffffffffffffffffffffffffffffffffffff166325223bd46040518163ffffffff1660e01b8152600401602060405180830381865afa158015610c7e573d6000803e3d6000fd5b505050506040513d601f19601f82011682018060405250810190610ca291906139e4565b8a73ffffffffffffffffffffffffffffffffffffffff166338af3eed6040518163ffffffff1660e01b8152600401602060405180830381865afa158015610ced573d6000803e3d6000fd5b505050506040513d601f19601f82011682018060405250810190610d1191906139e4565b8b73ffffffffffffffffffffffffffffffffffffffff1663b91d40016040518163ffffffff1660e01b8152600401602060405180830381865afa158015610d5c573d6000803e3d6000fd5b505050506040513d601f19601f82011682018060405250810190610d809190613937565b8c73ffffffffffffffffffffffffffffffffffffffff1663872a78106040518163ffffffff1660e01b8152600401602060405180830381865afa158015610dcb573d6000803e3d6000fd5b505050506040513d601f19601f82011682018060405250810190610def9190613a26565b8d73ffffffffffffffffffffffffffffffffffffffff1663722713f76040518163ffffffff1660e01b8152600401602060405180830381865afa158015610e3a573d6000803e3d6000fd5b505050506040513d601f19601f82011682018060405250810190610e5e9190613937565b86975097509750975097509750975050919395979092949650565b6000610e83611fd6565b600073ffffffffffffffffffffffffffffffffffffffff168273ffffffffffffffffffffffffffffffffffffffff1603610ef2576040517f08c379a0000000000000000000000000000000000000000000000000000000008152600401610ee990613a9f565b60405180910390fd5b610eff6000801b83611bbb565b50610f2a7f5719df9ef2c4678b547f89e4f5ae410dbf400fc51cf3ded434c55f6adea2c43f83611bbb565b508173ffffffffffffffffffffffffffffffffffffffff16610f4a611a05565b73ffffffffffffffffffffffffffffffffffffffff16604051610f6c90613b0b565b60405180910390207f462b260bb7f1f6a55b13af8a2b24801cc187d85f27af3308bca5428016aa2ad742604051610fa39190612f6c565b60405180910390a460019050919050565b60008060008373ffffffffffffffffffffffffffffffffffffffff1673ffffffffffffffffffffffffffffffffffffffff168152602001908152602001600020549050919050565b611004611fd6565b6040517f08c379a000000000000000000000000000000000000000000000000000000000815260040161103690613b6c565b60405180910390fd5b7f5719df9ef2c4678b547f89e4f5ae410dbf400fc51cf3ded434c55f6adea2c43f81565b6110758261106f611a05565b83611a1f565b61107f8282611eba565b5050565b600061108e8261205d565b9050919050565b6000801b6110a281611ba7565b6110aa6120a6565b50565b6000606080600080600060606110c1612109565b6110c9612144565b46306000801b600067ffffffffffffffff8111156110ea576110e9613b8c565b5b6040519080825280602002602001820160405280156111185781602001602082028036833780820191505090505b507f0f00000000000000000000000000000000000000000000000000000000000000959493929190965096509650965096509650965090919293949596565b60008282905085859050146111a1576040517f08c379a000000000000000000000000000000000000000000000000000000000815260040161119890613c07565b60405180910390fd5b60005b85859050811015611245576111f98686838181106111c5576111c4613c27565b5b90506020020160208101906111da9190613067565b8585848181106111ed576111ec613c27565b5b90506020020135611408565b611238576040517f08c379a000000000000000000000000000000000000000000000000000000000815260040161122f90613ca2565b60405180910390fd5b80806001019150506111a4565b5060019050949350505050565b60008060001b61126181611ba7565b61127161126c611a05565b6108ff565b91505090565b6000600760009054906101000a900473ffffffffffffffffffffffffffffffffffffffff16905090565b8073ffffffffffffffffffffffffffffffffffffffff16634e71d92d6040518163ffffffff1660e01b8152600401600060405180830381600087803b1580156112e957600080fd5b505af11580156112fd573d6000803e3d6000fd5b5050505050565b60006006600084815260200190815260200160002060000160008373ffffffffffffffffffffffffffffffffffffffff1673ffffffffffffffffffffffffffffffffffffffff16815260200190815260200160002060009054906101000a900460ff16905092915050565b60606004805461137e90613819565b80601f01602080910402602001604051908101604052809291908181526020018280546113aa90613819565b80156113f75780601f106113cc576101008083540402835291602001916113f7565b820191906000526020600020905b8154815290600101906020018083116113da57829003601f168201915b5050505050905090565b6000801b81565b600080611413611a05565b9050611420818585611ab3565b600191505092915050565b6000848490508787905014801561144757508282905085859050145b611486576040517f08c379a000000000000000000000000000000000000000000000000000000000815260040161147d90613c07565b60405180910390fd5b60005b87879050811015611552576115068888838181106114aa576114a9613c27565b5b90506020020160208101906114bf9190613067565b8787848181106114d2576114d1613c27565b5b90506020020160208101906114e79190613067565b8686858181106114fa576114f9613c27565b5b905060200201356108b0565b611545576040517f08c379a000000000000000000000000000000000000000000000000000000000815260040161153c90613d0e565b60405180910390fd5b8080600101915050611489565b50600190509695505050505050565b834211156115a657836040517f6279130200000000000000000000000000000000000000000000000000000000815260040161159d9190612f6c565b60405180910390fd5b60007f6e71edae12b1b97f4d1f60370fef10105fa2faae0126114a169c64845d6126c98888886115d58c61217f565b896040516020016115eb96959493929190613d2e565b604051602081830303815290604052805190602001209050600061160e826121d6565b9050600061161e828787876121f0565b90508973ffffffffffffffffffffffffffffffffffffffff168173ffffffffffffffffffffffffffffffffffffffff161461169257808a6040517f4b800e46000000000000000000000000000000000000000000000000000000008152600401611689929190613d8f565b60405180910390fd5b61169d8a8a8a611a0d565b50505050505050505050565b6116b2826108df565b6116bb81611ba7565b6116c58383611d64565b50505050565b6000600160008473ffffffffffffffffffffffffffffffffffffffff1673ffffffffffffffffffffffffffffffffffffffff16815260200190815260200160002060008373ffffffffffffffffffffffffffffffffffffffff1673ffffffffffffffffffffffffffffffffffffffff16815260200190815260200160002054905092915050565b60007f5719df9ef2c4678b547f89e4f5ae410dbf400fc51cf3ded434c55f6adea2c43f61177e81611ba7565b6000848661178c9190613de7565b426117979190613e29565b90506000308a8a8488306040516117ad90612d05565b6117bc96959493929190613e5d565b604051809103906000f0801580156117d8573d6000803e3d6000fd5b5090506117ed6117e6611a05565b828a611ab3565b8873ffffffffffffffffffffffffffffffffffffffff168a73ffffffffffffffffffffffffffffffffffffffff168273ffffffffffffffffffffffffffffffffffffffff167f024f9ed25691e6727f00b4c6c166398e2c933d5bd747f9433582f71f219d41ca8473ffffffffffffffffffffffffffffffffffffffff1663722713f76040518163ffffffff1660e01b8152600401602060405180830381865afa15801561189e573d6000803e3d6000fd5b505050506040513d601f19601f820116820180604052508101906118c29190613937565b868a30426040516118d7959493929190613ebe565b60405180910390a48093505050509695505050505050565b7f5719df9ef2c4678b547f89e4f5ae410dbf400fc51cf3ded434c55f6adea2c43f61191981611ba7565b8173ffffffffffffffffffffffffffffffffffffffff1663b6549f756040518163ffffffff1660e01b8152600401600060405180830381600087803b15801561196157600080fd5b505af1158015611975573d6000803e3d6000fd5b505050505050565b611985611fd6565b61198e81610e79565b5061199881612220565b50565b60007f01ffc9a7000000000000000000000000000000000000000000000000000000007bffffffffffffffffffffffffffffffffffffffffffffffffffffffff1916827bffffffffffffffffffffffffffffffffffffffffffffffffffffffff1916149050919050565b600033905090565b611a1a83838360016122a6565b505050565b6000611a2b84846116cb565b90507fffffffffffffffffffffffffffffffffffffffffffffffffffffffffffffffff8114611aad5781811015611a9d578281836040517ffb8f41b2000000000000000000000000000000000000000000000000000000008152600401611a9493929190613f11565b60405180910390fd5b611aac848484840360006122a6565b5b50505050565b600073ffffffffffffffffffffffffffffffffffffffff168373ffffffffffffffffffffffffffffffffffffffff1603611b255760006040517f96c6fd1e000000000000000000000000000000000000000000000000000000008152600401611b1c91906134da565b60405180910390fd5b600073ffffffffffffffffffffffffffffffffffffffff168273ffffffffffffffffffffffffffffffffffffffff1603611b975760006040517fec442f05000000000000000000000000000000000000000000000000000000008152600401611b8e91906134da565b60405180910390fd5b611ba283838361247d565b505050565b611bb881611bb3611a05565b61248d565b50565b6000611bc78383611304565b611ca25760016006600085815260200190815260200160002060000160008473ffffffffffffffffffffffffffffffffffffffff1673ffffffffffffffffffffffffffffffffffffffff16815260200190815260200160002060006101000a81548160ff021916908315150217905550611c3f611a05565b73ffffffffffffffffffffffffffffffffffffffff168273ffffffffffffffffffffffffffffffffffffffff16847f2f8788117e7eff1d82e926ec794901d17c78024a50270940304540a733656f0d60405160405180910390a460019050611ca7565b600090505b92915050565b60007f000000000000000000000000000000000000000000000000000000000000000073ffffffffffffffffffffffffffffffffffffffff163073ffffffffffffffffffffffffffffffffffffffff16148015611d2957507f000000000000000000000000000000000000000000000000000000000000000046145b15611d56577f00000000000000000000000000000000000000000000000000000000000000009050611d61565b611d5e6124de565b90505b90565b6000611d708383611304565b15611e4c5760006006600085815260200190815260200160002060000160008473ffffffffffffffffffffffffffffffffffffffff1673ffffffffffffffffffffffffffffffffffffffff16815260200190815260200160002060006101000a81548160ff021916908315150217905550611de9611a05565b73ffffffffffffffffffffffffffffffffffffffff168273ffffffffffffffffffffffffffffffffffffffff16847ff6391f5c32d9c69d2a47ea670b442974b53935d1edc7fd64eb21e047a839171b60405160405180910390a460019050611e51565b600090505b92915050565b611e5f612574565b6000600560006101000a81548160ff0219169083151502179055507f5db9ee0a495bf2e6ff9c91a7834c1ba4fdd244a5e8aa4e537bd38aeae4b073aa611ea3611a05565b604051611eb091906134da565b60405180910390a1565b600073ffffffffffffffffffffffffffffffffffffffff168273ffffffffffffffffffffffffffffffffffffffff1603611f2c5760006040517f96c6fd1e000000000000000000000000000000000000000000000000000000008152600401611f2391906134da565b60405180910390fd5b611f388260008361247d565b5050565b600080428311611f81576040517f08c379a0000000000000000000000000000000000000000000000000000000008152600401611f7890613f94565b60405180910390fd5b6000429050600084905060006201518083611f9c9190613fe3565b905060006201518083611faf9190613fe3565b90508181611fbd9190614014565b8484611fc99190614014565b9550955050505050915091565b611fde611a05565b73ffffffffffffffffffffffffffffffffffffffff16611ffc611277565b73ffffffffffffffffffffffffffffffffffffffff161461205b5761201f611a05565b6040517f118cdaa700000000000000000000000000000000000000000000000000000000815260040161205291906134da565b60405180910390fd5b565b6000600a60008373ffffffffffffffffffffffffffffffffffffffff1673ffffffffffffffffffffffffffffffffffffffff168152602001908152602001600020549050919050565b6120ae6125b4565b6001600560006101000a81548160ff0219169083151502179055507f62e78cea01bee320cd4e420270b5ea74000d11b0c9f74754ebdbfc544b05a2586120f2611a05565b6040516120ff91906134da565b60405180910390a1565b606061213f60087f00000000000000000000000000000000000000000000000000000000000000006125f590919063ffffffff16565b905090565b606061217a60097f00000000000000000000000000000000000000000000000000000000000000006125f590919063ffffffff16565b905090565b6000600a60008373ffffffffffffffffffffffffffffffffffffffff1673ffffffffffffffffffffffffffffffffffffffff1681526020019081526020016000206000815480929190600101919050559050919050565b60006121e96121e3611cad565b836126a5565b9050919050565b600080600080612202888888886126e6565b92509250925061221282826127da565b829350505050949350505050565b612228611fd6565b600073ffffffffffffffffffffffffffffffffffffffff168173ffffffffffffffffffffffffffffffffffffffff160361229a5760006040517f1e4fbdf700000000000000000000000000000000000000000000000000000000815260040161229191906134da565b60405180910390fd5b6122a38161293e565b50565b600073ffffffffffffffffffffffffffffffffffffffff168473ffffffffffffffffffffffffffffffffffffffff16036123185760006040517fe602df0500000000000000000000000000000000000000000000000000000000815260040161230f91906134da565b60405180910390fd5b600073ffffffffffffffffffffffffffffffffffffffff168373ffffffffffffffffffffffffffffffffffffffff160361238a5760006040517f94280d6200000000000000000000000000000000000000000000000000000000815260040161238191906134da565b60405180910390fd5b81600160008673ffffffffffffffffffffffffffffffffffffffff1673ffffffffffffffffffffffffffffffffffffffff16815260200190815260200160002060008573ffffffffffffffffffffffffffffffffffffffff1673ffffffffffffffffffffffffffffffffffffffff168152602001908152602001600020819055508015612477578273ffffffffffffffffffffffffffffffffffffffff168473ffffffffffffffffffffffffffffffffffffffff167f8c5be1e5ebec7d5bd14f71427d1e84f3dd0314c0f7b2291e5b200ac8c7c3b9258460405161246e9190612f6c565b60405180910390a35b50505050565b612488838383612a04565b505050565b6124978282611304565b6124da5780826040517fe2517d3f0000000000000000000000000000000000000000000000000000000081526004016124d1929190614048565b60405180910390fd5b5050565b60007f8b73c3c69bb8fe3d512ecc4cf759cc79239f7b179b0ffacaa9a75d522b39400f7f00000000000000000000000000000000000000000000000000000000000000007f00000000000000000000000000000000000000000000000000000000000000004630604051602001612559959493929190614071565b60405160208183030381529060405280519060200120905090565b61257c610b25565b6125b2576040517f8dfc202b00000000000000000000000000000000000000000000000000000000815260040160405180910390fd5b565b6125bc610b25565b156125f3576040517fd93c066500000000000000000000000000000000000000000000000000000000815260040160405180910390fd5b565b606060ff60001b83146126125761260b83612a1c565b905061269f565b81805461261e90613819565b80601f016020809104026020016040519081016040528092919081815260200182805461264a90613819565b80156126975780601f1061266c57610100808354040283529160200191612697565b820191906000526020600020905b81548152906001019060200180831161267a57829003601f168201915b505050505090505b92915050565b60006040517f190100000000000000000000000000000000000000000000000000000000000081528360028201528260228201526042812091505092915050565b60008060007f7fffffffffffffffffffffffffffffff5d576e7357a4501ddfe92f46681b20a08460001c11156127265760006003859250925092506127d0565b60006001888888886040516000815260200160405260405161274b94939291906140c4565b6020604051602081039080840390855afa15801561276d573d6000803e3d6000fd5b505050602060405103519050600073ffffffffffffffffffffffffffffffffffffffff168173ffffffffffffffffffffffffffffffffffffffff16036127c157600060016000801b935093509350506127d0565b8060008060001b935093509350505b9450945094915050565b600060038111156127ee576127ed614109565b5b82600381111561280157612800614109565b5b031561293a576001600381111561281b5761281a614109565b5b82600381111561282e5761282d614109565b5b03612865576040517ff645eedf00000000000000000000000000000000000000000000000000000000815260040160405180910390fd5b6002600381111561287957612878614109565b5b82600381111561288c5761288b614109565b5b036128d1578060001c6040517ffce698f70000000000000000000000000000000000000000000000000000000081526004016128c89190612f6c565b60405180910390fd5b6003808111156128e4576128e3614109565b5b8260038111156128f7576128f6614109565b5b0361293957806040517fd78bce0c000000000000000000000000000000000000000000000000000000008152600401612930919061304c565b60405180910390fd5b5b5050565b6000600760009054906101000a900473ffffffffffffffffffffffffffffffffffffffff16905081600760006101000a81548173ffffffffffffffffffffffffffffffffffffffff021916908373ffffffffffffffffffffffffffffffffffffffff1602179055508173ffffffffffffffffffffffffffffffffffffffff168173ffffffffffffffffffffffffffffffffffffffff167f8be0079c531659141344cd1fd0a4f28419497f9722a3daafe3b4186f6b6457e060405160405180910390a35050565b612a0c6125b4565b612a17838383612a90565b505050565b60606000612a2983612cb5565b90506000602067ffffffffffffffff811115612a4857612a47613b8c565b5b6040519080825280601f01601f191660200182016040528015612a7a5781602001600182028036833780820191505090505b5090508181528360208201528092505050919050565b600073ffffffffffffffffffffffffffffffffffffffff168373ffffffffffffffffffffffffffffffffffffffff1603612ae2578060026000828254612ad69190613e29565b92505081905550612bb5565b60008060008573ffffffffffffffffffffffffffffffffffffffff1673ffffffffffffffffffffffffffffffffffffffff16815260200190815260200160002054905081811015612b6e578381836040517fe450d38c000000000000000000000000000000000000000000000000000000008152600401612b6593929190613f11565b60405180910390fd5b8181036000808673ffffffffffffffffffffffffffffffffffffffff1673ffffffffffffffffffffffffffffffffffffffff16815260200190815260200160002081905550505b600073ffffffffffffffffffffffffffffffffffffffff168273ffffffffffffffffffffffffffffffffffffffff1603612bfe5780600260008282540392505081905550612c4b565b806000808473ffffffffffffffffffffffffffffffffffffffff1673ffffffffffffffffffffffffffffffffffffffff168152602001908152602001600020600082825401925050819055505b8173ffffffffffffffffffffffffffffffffffffffff168373ffffffffffffffffffffffffffffffffffffffff167fddf252ad1be2c89b69c2b068fc378daa952ba7f163c4a11628f55a4df523b3ef83604051612ca89190612f6c565b60405180910390a3505050565b60008060ff8360001c169050601f811115612cfc576040517fb3512b0c00000000000000000000000000000000000000000000000000000000815260040160405180910390fd5b80915050919050565b6118298061413983390190565b600080fd5b600080fd5b60007fffffffff0000000000000000000000000000000000000000000000000000000082169050919050565b612d5181612d1c565b8114612d5c57600080fd5b50565b600081359050612d6e81612d48565b92915050565b600060208284031215612d8a57612d89612d12565b5b6000612d9884828501612d5f565b91505092915050565b60008115159050919050565b612db681612da1565b82525050565b6000602082019050612dd16000830184612dad565b92915050565b600081519050919050565b600082825260208201905092915050565b60005b83811015612e11578082015181840152602081019050612df6565b60008484015250505050565b6000601f19601f8301169050919050565b6000612e3982612dd7565b612e438185612de2565b9350612e53818560208601612df3565b612e5c81612e1d565b840191505092915050565b60006020820190508181036000830152612e818184612e2e565b905092915050565b600073ffffffffffffffffffffffffffffffffffffffff82169050919050565b6000612eb482612e89565b9050919050565b612ec481612ea9565b8114612ecf57600080fd5b50565b600081359050612ee181612ebb565b92915050565b6000819050919050565b612efa81612ee7565b8114612f0557600080fd5b50565b600081359050612f1781612ef1565b92915050565b60008060408385031215612f3457612f33612d12565b5b6000612f4285828601612ed2565b9250506020612f5385828601612f08565b9150509250929050565b612f6681612ee7565b82525050565b6000602082019050612f816000830184612f5d565b92915050565b600080600060608486031215612fa057612f9f612d12565b5b6000612fae86828701612ed2565b9350506020612fbf86828701612ed2565b9250506040612fd086828701612f08565b9150509250925092565b6000819050919050565b612fed81612fda565b8114612ff857600080fd5b50565b60008135905061300a81612fe4565b92915050565b60006020828403121561302657613025612d12565b5b600061303484828501612ffb565b91505092915050565b61304681612fda565b82525050565b6000602082019050613061600083018461303d565b92915050565b60006020828403121561307d5761307c612d12565b5b600061308b84828501612ed2565b91505092915050565b600080604083850312156130ab576130aa612d12565b5b60006130b985828601612ffb565b92505060206130ca85828601612ed2565b9150509250929050565b600060ff82169050919050565b6130ea816130d4565b82525050565b600060208201905061310560008301846130e1565b92915050565b60006020828403121561312157613120612d12565b5b600061312f84828501612f08565b91505092915050565b600061314382612ea9565b9050919050565b61315381613138565b811461315e57600080fd5b50565b6000813590506131708161314a565b92915050565b60006020828403121561318c5761318b612d12565b5b600061319a84828501613161565b91505092915050565b6131ac81612ea9565b82525050565b600060e0820190506131c7600083018a6131a3565b6131d460208301896131a3565b6131e160408301886131a3565b6131ee6060830187612f5d565b6131fb6080830186612dad565b61320860a0830185612f5d565b61321560c0830184612f5d565b98975050505050505050565b60007fff0000000000000000000000000000000000000000000000000000000000000082169050919050565b61325681613221565b82525050565b600081519050919050565b600082825260208201905092915050565b6000819050602082019050919050565b61329181612ee7565b82525050565b60006132a38383613288565b60208301905092915050565b6000602082019050919050565b60006132c78261325c565b6132d18185613267565b93506132dc83613278565b8060005b8381101561330d5781516132f48882613297565b97506132ff836132af565b9250506001810190506132e0565b5085935050505092915050565b600060e08201905061332f600083018a61324d565b81810360208301526133418189612e2e565b905081810360408301526133558188612e2e565b90506133646060830187612f5d565b61337160808301866131a3565b61337e60a083018561303d565b81810360c083015261339081846132bc565b905098975050505050505050565b600080fd5b600080fd5b600080fd5b60008083601f8401126133c3576133c261339e565b5b8235905067ffffffffffffffff8111156133e0576133df6133a3565b5b6020830191508360208202830111156133fc576133fb6133a8565b5b9250929050565b60008083601f8401126134195761341861339e565b5b8235905067ffffffffffffffff811115613436576134356133a3565b5b602083019150836020820283011115613452576134516133a8565b5b9250929050565b6000806000806040858703121561347357613472612d12565b5b600085013567ffffffffffffffff81111561349157613490612d17565b5b61349d878288016133ad565b9450945050602085013567ffffffffffffffff8111156134c0576134bf612d17565b5b6134cc87828801613403565b925092505092959194509250565b60006020820190506134ef60008301846131a3565b92915050565b6000806000806000806060878903121561351257613511612d12565b5b600087013567ffffffffffffffff8111156135305761352f612d17565b5b61353c89828a016133ad565b9650965050602087013567ffffffffffffffff81111561355f5761355e612d17565b5b61356b89828a016133ad565b9450945050604087013567ffffffffffffffff81111561358e5761358d612d17565b5b61359a89828a01613403565b92509250509295509295509295565b6135b2816130d4565b81146135bd57600080fd5b50565b6000813590506135cf816135a9565b92915050565b600080600080600080600060e0888a0312156135f4576135f3612d12565b5b60006136028a828b01612ed2565b97505060206136138a828b01612ed2565b96505060406136248a828b01612f08565b95505060606136358a828b01612f08565b94505060806136468a828b016135c0565b93505060a06136578a828b01612ffb565b92505060c06136688a828b01612ffb565b91505092959891949750929550565b6000806040838503121561368e5761368d612d12565b5b600061369c85828601612ed2565b92505060206136ad85828601612ed2565b9150509250929050565b6136c081612da1565b81146136cb57600080fd5b50565b6000813590506136dd816136b7565b92915050565b60008060008060008060c08789031215613700576136ff612d12565b5b600061370e89828a01612ed2565b965050602061371f89828a01612ed2565b955050604061373089828a01612f08565b945050606061374189828a01612f08565b935050608061375289828a01612f08565b92505060a061376389828a016136ce565b9150509295509295509295565b6000819050919050565b600061379561379061378b84612e89565b613770565b612e89565b9050919050565b60006137a78261377a565b9050919050565b60006137b98261379c565b9050919050565b6137c9816137ae565b82525050565b60006020820190506137e460008301846137c0565b92915050565b7f4e487b7100000000000000000000000000000000000000000000000000000000600052602260045260246000fd5b6000600282049050600182168061383157607f821691505b602082108103613844576138436137ea565b5b50919050565b7f424e3a2063616e2774207265766f6b65206f776e6572277320726f6c65000000600082015250565b6000613880601d83612de2565b915061388b8261384a565b602082019050919050565b600060208201905081810360008301526138af81613873565b9050919050565b600081905092915050565b7f7265766f6b6541646d696e000000000000000000000000000000000000000000600082015250565b60006138f7600b836138b6565b9150613902826138c1565b600b82019050919050565b6000613918826138ea565b9150819050919050565b60008151905061393181612ef1565b92915050565b60006020828403121561394d5761394c612d12565b5b600061395b84828501613922565b91505092915050565b600061396f82612ea9565b9050919050565b61397f81613964565b811461398a57600080fd5b50565b60008151905061399c81613976565b92915050565b6000602082840312156139b8576139b7612d12565b5b60006139c68482850161398d565b91505092915050565b6000815190506139de81612ebb565b92915050565b6000602082840312156139fa576139f9612d12565b5b6000613a08848285016139cf565b91505092915050565b600081519050613a20816136b7565b92915050565b600060208284031215613a3c57613a3b612d12565b5b6000613a4a84828501613a11565b91505092915050565b7f424e3a207a65726f206164647265737300000000000000000000000000000000600082015250565b6000613a89601083612de2565b9150613a9482613a53565b602082019050919050565b60006020820190508181036000830152613ab881613a7c565b9050919050565b7f61646441646d696e000000000000000000000000000000000000000000000000600082015250565b6000613af56008836138b6565b9150613b0082613abf565b600882019050919050565b6000613b1682613ae8565b9150819050919050565b7f424e3a2064697361626c65640000000000000000000000000000000000000000600082015250565b6000613b56600c83612de2565b9150613b6182613b20565b602082019050919050565b60006020820190508181036000830152613b8581613b49565b9050919050565b7f4e487b7100000000000000000000000000000000000000000000000000000000600052604160045260246000fd5b7f424e3a20696e76616c6964206172726179000000000000000000000000000000600082015250565b6000613bf1601183612de2565b9150613bfc82613bbb565b602082019050919050565b60006020820190508181036000830152613c2081613be4565b9050919050565b7f4e487b7100000000000000000000000000000000000000000000000000000000600052603260045260246000fd5b7f424e3a206661696c6564207472616e7366657200000000000000000000000000600082015250565b6000613c8c601383612de2565b9150613c9782613c56565b602082019050919050565b60006020820190508181036000830152613cbb81613c7f565b9050919050565b7f424e3a206661696c6564207472616e7366657246726f6d000000000000000000600082015250565b6000613cf8601783612de2565b9150613d0382613cc2565b602082019050919050565b60006020820190508181036000830152613d2781613ceb565b9050919050565b600060c082019050613d43600083018961303d565b613d5060208301886131a3565b613d5d60408301876131a3565b613d6a6060830186612f5d565b613d776080830185612f5d565b613d8460a0830184612f5d565b979650505050505050565b6000604082019050613da460008301856131a3565b613db160208301846131a3565b9392505050565b7f4e487b7100000000000000000000000000000000000000000000000000000000600052601160045260246000fd5b6000613df282612ee7565b9150613dfd83612ee7565b9250828202613e0b81612ee7565b91508282048414831517613e2257613e21613db8565b5b5092915050565b6000613e3482612ee7565b9150613e3f83612ee7565b9250828201905080821115613e5757613e56613db8565b5b92915050565b600060c082019050613e7260008301896131a3565b613e7f60208301886131a3565b613e8c60408301876131a3565b613e996060830186612f5d565b613ea66080830185612dad565b613eb360a08301846131a3565b979650505050505050565b600060a082019050613ed36000830188612f5d565b613ee06020830187612f5d565b613eed6040830186612dad565b613efa60608301856131a3565b613f076080830184612f5d565b9695505050505050565b6000606082019050613f2660008301866131a3565b613f336020830185612f5d565b613f406040830184612f5d565b949350505050565b7f424e3a206e6f7420796574000000000000000000000000000000000000000000600082015250565b6000613f7e600b83612de2565b9150613f8982613f48565b602082019050919050565b60006020820190508181036000830152613fad81613f71565b9050919050565b7f4e487b7100000000000000000000000000000000000000000000000000000000600052601260045260246000fd5b6000613fee82612ee7565b9150613ff983612ee7565b92508261400957614008613fb4565b5b828204905092915050565b600061401f82612ee7565b915061402a83612ee7565b925082820390508181111561404257614041613db8565b5b92915050565b600060408201905061405d60008301856131a3565b61406a602083018461303d565b9392505050565b600060a082019050614086600083018861303d565b614093602083018761303d565b6140a0604083018661303d565b6140ad6060830185612f5d565b6140ba60808301846131a3565b9695505050505050565b60006080820190506140d9600083018761303d565b6140e660208301866130e1565b6140f3604083018561303d565b614100606083018461303d565b95945050505050565b7f4e487b7100000000000000000000000000000000000000000000000000000000600052602160045260246000fdfe61012060405234801561001157600080fd5b506040516118293803806118298339818101604052810190610033919061038f565b600073ffffffffffffffffffffffffffffffffffffffff168573ffffffffffffffffffffffffffffffffffffffff16036100a2576040517f08c379a000000000000000000000000000000000000000000000000000000000815260040161009990610479565b60405180910390fd5b600073ffffffffffffffffffffffffffffffffffffffff168473ffffffffffffffffffffffffffffffffffffffff1603610111576040517f08c379a0000000000000000000000000000000000000000000000000000000008152600401610108906104e5565b60405180910390fd5b600073ffffffffffffffffffffffffffffffffffffffff168173ffffffffffffffffffffffffffffffffffffffff1603610180576040517f08c379a000000000000000000000000000000000000000000000000000000000815260040161017790610551565b60405180910390fd5b4283116101c2576040517f08c379a00000000000000000000000000000000000000000000000000000000081526004016101b9906105bd565b60405180910390fd5b856000806101000a81548173ffffffffffffffffffffffffffffffffffffffff021916908373ffffffffffffffffffffffffffffffffffffffff1602179055508473ffffffffffffffffffffffffffffffffffffffff1660808173ffffffffffffffffffffffffffffffffffffffff16815250508373ffffffffffffffffffffffffffffffffffffffff1660a08173ffffffffffffffffffffffffffffffffffffffff16815250508260c0818152505081151560e0811515815250508073ffffffffffffffffffffffffffffffffffffffff166101008173ffffffffffffffffffffffffffffffffffffffff16815250505050505050506105dd565b600080fd5b600073ffffffffffffffffffffffffffffffffffffffff82169050919050565b60006102ee826102c3565b9050919050565b6102fe816102e3565b811461030957600080fd5b50565b60008151905061031b816102f5565b92915050565b6000819050919050565b61033481610321565b811461033f57600080fd5b50565b6000815190506103518161032b565b92915050565b60008115159050919050565b61036c81610357565b811461037757600080fd5b50565b60008151905061038981610363565b92915050565b60008060008060008060c087890312156103ac576103ab6102be565b5b60006103ba89828a0161030c565b96505060206103cb89828a0161030c565b95505060406103dc89828a0161030c565b94505060606103ed89828a01610342565b93505060806103fe89828a0161037a565b92505060a061040f89828a0161030c565b9150509295509295509295565b600082825260208201905092915050565b7f4c3a20646f6e6f72000000000000000000000000000000000000000000000000600082015250565b600061046360088361041c565b915061046e8261042d565b602082019050919050565b6000602082019050818103600083015261049281610456565b9050919050565b7f4c3a2062656e6566696369617279000000000000000000000000000000000000600082015250565b60006104cf600e8361041c565b91506104da82610499565b602082019050919050565b600060208201905081810360008301526104fe816104c2565b9050919050565b7f4c3a2073797374656d0000000000000000000000000000000000000000000000600082015250565b600061053b60098361041c565b915061054682610505565b602082019050919050565b6000602082019050818103600083015261056a8161052e565b9050919050565b7f4c3a20696e76616c69642072656c656173652074696d65000000000000000000600082015250565b60006105a760178361041c565b91506105b282610571565b602082019050919050565b600060208201905081810360008301526105d68161059a565b9050919050565b60805160a05160c05160e051610100516111a66106836000396000818161054b01528181610646015261071f01526000818161049001528181610622015261066a0152600081816101f6015281816103e90152818161046f01526109570152600081816101d20152818161033e015281816103c7015261044e0152600081816101ae0152818161042d015281816106ca01528181610893015261091c01526111a66000f3fe608060405234801561001057600080fd5b506004361061009e5760003560e01c8063872a781011610066578063872a78101461012a57806395bf75fd14610148578063b6549f7514610166578063b91d400114610170578063fc0c546a1461018e5761009e565b806325223bd4146100a357806338af3eed146100c15780634e71d92d146100df5780635a9b0b89146100e9578063722713f71461010c575b600080fd5b6100ab6101ac565b6040516100b89190610cb0565b60405180910390f35b6100c96101d0565b6040516100d69190610cb0565b60405180910390f35b6100e76101f4565b005b6100f1610422565b60405161010396959493929190610cff565b60405180910390f35b61011461057e565b6040516101219190610d60565b60405180910390f35b610132610620565b60405161013f9190610d7b565b60405180910390f35b610150610644565b60405161015d9190610cb0565b60405180910390f35b61016e610668565b005b610178610955565b6040516101859190610d60565b60405180910390f35b610196610979565b6040516101a39190610df5565b60405180910390f35b7f000000000000000000000000000000000000000000000000000000000000000081565b7f000000000000000000000000000000000000000000000000000000000000000081565b7f0000000000000000000000000000000000000000000000000000000000000000421015610257576040517f08c379a000000000000000000000000000000000000000000000000000000000815260040161024e90610e6d565b60405180910390fd5b60008060009054906101000a900473ffffffffffffffffffffffffffffffffffffffff1673ffffffffffffffffffffffffffffffffffffffff166370a08231306040518263ffffffff1660e01b81526004016102b39190610cb0565b602060405180830381865afa1580156102d0573d6000803e3d6000fd5b505050506040513d601f19601f820116820180604052508101906102f49190610ebe565b905060008111610339576040517f08c379a000000000000000000000000000000000000000000000000000000000815260040161033090610f37565b60405180910390fd5b6103a47f00000000000000000000000000000000000000000000000000000000000000008260008054906101000a900473ffffffffffffffffffffffffffffffffffffffff1673ffffffffffffffffffffffffffffffffffffffff166109a29092919063ffffffff16565b7f34fcbac0073d7c3d388e51312faf357774904998eeb8fca628b9e6f65ee1cbf77f0000000000000000000000000000000000000000000000000000000000000000827f000000000000000000000000000000000000000000000000000000000000000060405161041793929190610f57565b60405180910390a150565b6000806000806000807f00000000000000000000000000000000000000000000000000000000000000007f00000000000000000000000000000000000000000000000000000000000000007f00000000000000000000000000000000000000000000000000000000000000007f000000000000000000000000000000000000000000000000000000000000000060008054906101000a900473ffffffffffffffffffffffffffffffffffffffff1673ffffffffffffffffffffffffffffffffffffffff166370a08231306040518263ffffffff1660e01b81526004016105089190610cb0565b602060405180830381865afa158015610525573d6000803e3d6000fd5b505050506040513d601f19601f820116820180604052508101906105499190610ebe565b7f0000000000000000000000000000000000000000000000000000000000000000955095509550955095509550909192939495565b60008060009054906101000a900473ffffffffffffffffffffffffffffffffffffffff1673ffffffffffffffffffffffffffffffffffffffff166370a08231306040518263ffffffff1660e01b81526004016105da9190610cb0565b602060405180830381865afa1580156105f7573d6000803e3d6000fd5b505050506040513d601f19601f8201168201806040525081019061061b9190610ebe565b905090565b7f000000000000000000000000000000000000000000000000000000000000000081565b7f000000000000000000000000000000000000000000000000000000000000000081565b7f00000000000000000000000000000000000000000000000000000000000000006106c8576040517f08c379a00000000000000000000000000000000000000000000000000000000081526004016106bf90610fda565b60405180910390fd5b7f000000000000000000000000000000000000000000000000000000000000000073ffffffffffffffffffffffffffffffffffffffff163373ffffffffffffffffffffffffffffffffffffffff16148061076d57507f000000000000000000000000000000000000000000000000000000000000000073ffffffffffffffffffffffffffffffffffffffff163373ffffffffffffffffffffffffffffffffffffffff16145b6107ac576040517f08c379a00000000000000000000000000000000000000000000000000000000081526004016107a390611046565b60405180910390fd5b60008060009054906101000a900473ffffffffffffffffffffffffffffffffffffffff1673ffffffffffffffffffffffffffffffffffffffff166370a08231306040518263ffffffff1660e01b81526004016108089190610cb0565b602060405180830381865afa158015610825573d6000803e3d6000fd5b505050506040513d601f19601f820116820180604052508101906108499190610ebe565b90506000811161088e576040517f08c379a000000000000000000000000000000000000000000000000000000000815260040161088590610f37565b60405180910390fd5b6108f97f00000000000000000000000000000000000000000000000000000000000000008260008054906101000a900473ffffffffffffffffffffffffffffffffffffffff1673ffffffffffffffffffffffffffffffffffffffff166109a29092919063ffffffff16565b7fec9ab91322523c899ede7830ec9bfc992b5981cdcc27b91162fb23de5791117b7f00000000000000000000000000000000000000000000000000000000000000008260405161094a929190611066565b60405180910390a150565b7f000000000000000000000000000000000000000000000000000000000000000081565b60008060009054906101000a900473ffffffffffffffffffffffffffffffffffffffff16905090565b610a1c838473ffffffffffffffffffffffffffffffffffffffff1663a9059cbb85856040516024016109d5929190611066565b604051602081830303815290604052915060e01b6020820180517bffffffffffffffffffffffffffffffffffffffffffffffffffffffff8381831617835250505050610a21565b505050565b6000610a4c828473ffffffffffffffffffffffffffffffffffffffff16610ab890919063ffffffff16565b90506000815114158015610a71575080806020019051810190610a6f91906110bb565b155b15610ab357826040517f5274afe7000000000000000000000000000000000000000000000000000000008152600401610aaa9190610cb0565b60405180910390fd5b505050565b6060610ac683836000610ace565b905092915050565b606081471015610b1557306040517fcd786059000000000000000000000000000000000000000000000000000000008152600401610b0c9190610cb0565b60405180910390fd5b6000808573ffffffffffffffffffffffffffffffffffffffff168486604051610b3e9190611159565b60006040518083038185875af1925050503d8060008114610b7b576040519150601f19603f3d011682016040523d82523d6000602084013e610b80565b606091505b5091509150610b90868383610b9b565b925050509392505050565b606082610bb057610bab82610c2a565b610c22565b60008251148015610bd8575060008473ffffffffffffffffffffffffffffffffffffffff163b145b15610c1a57836040517f9996b315000000000000000000000000000000000000000000000000000000008152600401610c119190610cb0565b60405180910390fd5b819050610c23565b5b9392505050565b600081511115610c3d5780518082602001fd5b6040517f1425ea4200000000000000000000000000000000000000000000000000000000815260040160405180910390fd5b600073ffffffffffffffffffffffffffffffffffffffff82169050919050565b6000610c9a82610c6f565b9050919050565b610caa81610c8f565b82525050565b6000602082019050610cc56000830184610ca1565b92915050565b6000819050919050565b610cde81610ccb565b82525050565b60008115159050919050565b610cf981610ce4565b82525050565b600060c082019050610d146000830189610ca1565b610d216020830188610ca1565b610d2e6040830187610cd5565b610d3b6060830186610cf0565b610d486080830185610cd5565b610d5560a0830184610ca1565b979650505050505050565b6000602082019050610d756000830184610cd5565b92915050565b6000602082019050610d906000830184610cf0565b92915050565b6000819050919050565b6000610dbb610db6610db184610c6f565b610d96565b610c6f565b9050919050565b6000610dcd82610da0565b9050919050565b6000610ddf82610dc2565b9050919050565b610def81610dd4565b82525050565b6000602082019050610e0a6000830184610de6565b92915050565b600082825260208201905092915050565b7f4c3a206e6f742079657400000000000000000000000000000000000000000000600082015250565b6000610e57600a83610e10565b9150610e6282610e21565b602082019050919050565b60006020820190508181036000830152610e8681610e4a565b9050919050565b600080fd5b610e9b81610ccb565b8114610ea657600080fd5b50565b600081519050610eb881610e92565b92915050565b600060208284031215610ed457610ed3610e8d565b5b6000610ee284828501610ea9565b91505092915050565b7f4c3a206e6f20746f6b656e730000000000000000000000000000000000000000600082015250565b6000610f21600c83610e10565b9150610f2c82610eeb565b602082019050919050565b60006020820190508181036000830152610f5081610f14565b9050919050565b6000606082019050610f6c6000830186610ca1565b610f796020830185610cd5565b610f866040830184610cd5565b949350505050565b7f4c3a206e6f74207265766f6361626c6500000000000000000000000000000000600082015250565b6000610fc4601083610e10565b9150610fcf82610f8e565b602082019050919050565b60006020820190508181036000830152610ff381610fb7565b9050919050565b7f4c3a206e6f207065726d697373696f6e00000000000000000000000000000000600082015250565b6000611030601083610e10565b915061103b82610ffa565b602082019050919050565b6000602082019050818103600083015261105f81611023565b9050919050565b600060408201905061107b6000830185610ca1565b6110886020830184610cd5565b9392505050565b61109881610ce4565b81146110a357600080fd5b50565b6000815190506110b58161108f565b92915050565b6000602082840312156110d1576110d0610e8d565b5b60006110df848285016110a6565b91505092915050565b600081519050919050565b600081905092915050565b60005b8381101561111c578082015181840152602081019050611101565b60008484015250505050565b6000611133826110e8565b61113d81856110f3565b935061114d8185602086016110fe565b80840191505092915050565b60006111658284611128565b91508190509291505056fea26469706673582212202f411997da6013fdd04aa1411454fa85a5d5f39497fdd83304a02aefa330a2ad64736f6c634300081a0033a26469706673582212201f3c255f16cd5aedf117d19eb9804fcc1a650d0d7984876889b192b8233a419364736f6c634300081a0033",
  "linkReferences": {},
  "deployedLinkReferences": {}
}